:100000000C9434000C9451000C9451000C94510049
:100010000C9451000C9451000C9451000C9451001C
:100020000C9451000C9451000C9451000C94840DCC
:100030000C9451000C9451000C9451000C945100FC
:100040000C9451000C9451000C9451000C945100EC
:100050000C9451000C9451000C9451000C945100DC
:100060000C9451000C94510011241FBECFEFD8E026
:10007000DEBFCDBF11E0A0E0B1E0E2E3FBE102C0F2
:1000800005900D92AE30B107D9F717E0AEE0B1E0C0
:1000900001C01D92A138B107E1F70E945E000C94E7
:1000A000970D0C9400001F93259A10E285B18127CB
:1000B00085B988EE93E00E94F303F8CFAF92BF9228
:1000C000CF92DF92EF92FF920F93DF93CF9300D006
:1000D000CDB7DEB783E590E060E071E045E550E044
:1000E00020E030E000E07E010894E11CF11CCC240B
:1000F000DD24AA24BB240E94C5000E94190280E0CE
:1001000090E00F900F90CF91DF910F91FF90EF90C3
:10011000DF90CF90BF90AF9008950895CF93DF9375
:10012000EC01E0910E01F0910F01938382838091A5
:10013000110190911201C817D90768F48091430109
:100140009091440160910E0170910F016E5F7F4F9D
:100150000E94C80917C080914501909146016091A5
:100160000E0170910F016E5F7F4F0E94C809809150
:100170000B0190910C01C817D90720F4D0930C0102
:10018000C0930B01DF91CF9108952F923F925F9220
:100190006F927F928F929F92AF92BF92CF92DF9297
:1001A000EF92FF920F931F93CF93DF931C01162FB3
:1001B000572E5A013901470181E290E00E94FD0B60
:1001C000E82EE7017E01F92EE701209709F4DCC053
:1001D000C114D10429F4C5010E94FD0BC82ED92EEB
:1001E000D88ECF8AC114D10421F4CE010E94330CE1
:1001F000CBC0C60165EA70E0A5010E94900D08948D
:10020000A108B108EF88F88CEA0CFB1CAE01475E30
:100210005F4FE12FF52D28E0CF013191DA013D93B9
:10022000AD01DC018C91882311F02150A9F718A2AF
:10023000102F043008F013E01E8BE2E0AE2EB12C3C
:10024000AC0EBD1EC5010E94A109CE010C960E94F4
:10025000A109D987C88784E090E0811B91099D8717
:100260008C87DB8BCA8BC701B101A3010E94430CB1
:10027000998388838114910419F0F401D183C08398
:100280000FB6F8940F92809148018F5F80934801D8
:1002900080910E0190910F010097E9F5D0930F0125
:1002A000C0930E0180914801813009F043C0EE24D3
:1002B000FF24C70173E0880F991F7A95E1F78E0D2F
:1002C0009F1D8A5E9E4F0E9493090894E11CF11CB9
:1002D000F4E0EF16F10469F765E5E62E61E0F62E2D
:1002E000C7010E9493095EE5C52E51E0D52EC601D7
:1002F0000E9493098AE391E00E9493098AE491E0C5
:100300000E949309F0924601E0924501D092440187
:10031000C09243010FC080914901882359F4E091B4
:100320000E01F0910F018689081720F0D0930F017C
:10033000C0930E01809154018F5F809354012E89E8
:1003400080911501821710F42093150130E0C90146
:1003500043E0880F991F4A95E1F7820F931F8A5E49
:100360009E4FB5010E94A5090F900FBE80914901D3
:10037000882361F0E0910E01F0910F0186898017CA
:1003800028F40E94CE0C02C08FEF01C081E0DF9103
:10039000CF911F910F91FF90EF90DF90CF90BF9082
:1003A000AF909F908F907F906F905F903F902F9035
:1003B00008950F931F93CF93DF930FB6F8940F9286
:1003C000009729F4C0910E01D0910F0101C0EC01FA
:1003D0008E010E5F1F4FC8010E94010A8C899D8902
:1003E000009721F0CE010C960E94010A8AE491E068
:1003F000B8010E94A509809153018F5F809353013A
:10040000809154018F5F809354010F900FBE8091B3
:100410004901882349F080910E0190910F01C8177E
:10042000D90711F40E94CE0CDF91CF911F910F914B
:100430000895AF92BF92CF92DF92EF92FF920F9307
:100440008AEB93E066E071E045E550E020E030E0C3
:1004500000E0EE24FF24CC24DD24AA24BB240E9447
:10046000C500813049F4F89480934901109212013B
:10047000109211010E948D0C0F91FF90EF90DF9070
:10048000CF90BF90AF900895F894109249010E94C8
:10049000CD0C0895809114018F5F8093140108950D
:1004A0000FB6F8940F9220911101309112010F9024
:1004B0000FBEC90108952091110130911201C901A7
:1004C0000895809148010895CF92DF92EF92FF92B4
:1004D0000F931F93DF93CF930F92CDB7DEB7809129
:1004E0001401882309F0BBC0809111019091120181
:1004F00001969093120180931101009111011091C6
:1005000012010115110579F580914501909146017F
:1005100020914301309144013093460120934501DD
:100520009093440180934301809113018F5F8093E6
:100530001301E0914501F09146018081882319F46F
:100540008FEF9FEF0CC0E0914501F09146010580CF
:10055000F681E02D0680F781E02D828193819093D2
:100560000C0180930B0180910B0190910C010817F5
:10057000190708F45FC040E001C041E0E091450187
:10058000F09146018081882319F48FEF9FEF11C00D
:10059000E0914501F09146010580F681E02DC6808D
:1005A000D780D60112968D919C9113970817190741
:1005B00028F490930C0180930B013DC082E0E82E5B
:1005C000F12CEC0CFD1CC70149830E94010AF601C5
:1005D000848995894981009729F0C6010C960E946B
:1005E000010A4981D60156968C9156979091150132
:1005F000981710F48093150190E09C01B3E0220F4E
:10060000331FBA95E1F7280F391FC9018A5E9E4F43
:10061000B70149830E94A509E0910E01F0910F01F5
:10062000D60156969C91569786894981981708F06D
:10063000A4CFA4CF40E0E0910E01F0910F01868994
:1006400090E0FC01A3E0EE0FFF1FAA95E1F7E80F91
:10065000F91FEA5EFE4F8081823040F408C080912D
:1006600047018F5F8093470140E001C041E08091E6
:100670001001811141E0842F0F90CF91DF911F91E4
:100680000F91FF90EF90DF90CF900895FF920F931E
:100690001F93CF93DF930FB6F8940F9280911401BC
:1006A00081508093140180911401882309F059C06E
:1006B00080914801882389F555C0E0913F01F09170
:1006C0004001C681D781CE010C960E94010A8E019D
:1006D0000E5F1F4FC8010E94010A2E8980911501EB
:1006E000821710F42093150130E0C90143E0880F10
:1006F000991F4A95E1F7820F931F8A5E9E4FB801BA
:100700000E94A509E0910E01F0910F019E89868952
:10071000981728F0F092100102C0FF24F394809102
:100720003A01882351F680914701882369F411C06A
:100730000E946402882311F0009310018091470108
:1007400081508093470101C001E0809147018823D7
:1007500079F780911001813021F40E94CE0C81E064
:1007600001C080E00F900FBEDF91CF911F910F91DC
:10077000FF9008951F93CF93DF9328C00E944A02F1
:1007800010914A010E944603112301F10FB6F8941B
:100790000F92E0914F01F0915001C681D781CE01B7
:1007A00002960E94010A809148018150809348017D
:1007B000809153018150809353010F900FBE8F8918
:1007C000988D0E94330CCE010E94330C809153010E
:1007D0008823A1F680911601823010F00E94CE0C81
:1007E0000E948D00F3CF0F931F93CF93DF93EC0103
:1007F0000097B1F00E944A0200911101109112017C
:1008000080910E0190910F0102960E94010ACE0183
:10081000800F911F0E948E000E944603882311F4CE
:100820000E94CE0CDF91CF911F910F9108950F93ED
:100830001F93CF93DF938C01EB010E944A0220911A
:10084000110130911201F80180819181C80FD91FE7
:100850002817390720F4C817D90740F403C0C81770
:10086000D90730F081E02C173D0718F080E001C077
:1008700081E0F801D183C083882351F080910E017B
:1008800090910F0102960E94010ACE010E948E00F3
:100890000E944603882311F40E94CE0CDF91CF9171
:1008A0001F910F91089580911401882321F081E018
:1008B0008093100108951092100105C080911501D8
:1008C0008150809315018091150190E0FC0173E047
:1008D000EE0FFF1F7A95E1F7E80FF91FEA5EFE4F72
:1008E0008081882359F38091150190E09C0163E099
:1008F000220F331F6A95E1F7280F391FF901EA5ECD
:10090000FE4FA181B28112960D90BC91A02DB283B1
:10091000A183275E3E4FA217B30731F412962D91A3
:100920003C91139732832183FC0153E0EE0FFF1FAC
:100930005A95E1F7E80FF91FEA5EFE4F0180F28158
:10094000E02D8681978190930F0180930E01089589
:10095000CF93DF93EB0160910E0170910F01645F03
:100960007F4F0E94C80980910E0190910F0102965D
:100970000E94010A80911101909112018C0F9D1F1C
:100980000E948E00DF91CF9108950F931F93CF9314
:10099000DF93DC011596ED91FC911697C681D78106
:1009A0008E01045F1F4FC8010E94010A809114014B
:1009B0008823C9F48E010E5F1F4FC8010E94010AEF
:1009C0002E8980911501821710F42093150130E0D3
:1009D000C901E3E0880F991FEA95E1F7820F931FA1
:1009E0008A5E9E4F02C08AE391E0B8010E94A50989
:1009F000E0910E01F0910F019E898689981720F0F1
:100A000081E08093100101C080E0DF91CF911F91C0
:100A10000F910895FC018091130180838091110151
:100A200090911201928381830895FC01DB010FB63E
:100A3000F8940F92209111013091120190911301BD
:100A40008081981729F08181928128173907E8F46D
:100A5000818192814D915C911197B901681B790B4D
:100A60006417750790F4821B930B840F951F1196E2
:100A70009C938E93809113018083809111019091BA
:100A800012019283818380E001C081E00F900FBE4C
:100A9000089581E08093100108951F93CF93DF9311
:100AA000EC01142F4C8D4423D9F11123B1F48C8126
:100AB0009D8150E00E94870D2C8D8C819D81820F3D
:100AC000911D9D838C832A813B818217930740F17E
:100AD000888199819D838C8323C08E819F8150E082
:100AE0000E94870D2C8D30E0309521953F4F8E81EF
:100AF0009F81820F931F9F838E8348815981841722
:100B0000950730F48A819B81820F931F9F838E8388
:100B1000123031F48A8D882319F08A8D81508A8FA2
:100B20008A8D8F5F8A8FDF91CF911F910895CF9328
:100B3000DF93FC01CB01A081B1811097A9F0448D16
:100B400026813781240F311D37832683C281D381CB
:100B50002C173D0710F0B783A68336812781632FBA
:100B6000722F50E00E94870DDF91CF9108950F936F
:100B70001F93CF93DF93EC010FB6F8940F928C0183
:100B80000F5E1F4F0DC08989882369F0C8010E943C
:100B9000C504882311F00E9449058E8D81508E8FE7
:100BA0008E8D181684F38FEF8E8F0F900FBE0FB6B9
:100BB000F8940F928E01085F1F4F0DC0888588231F
:100BC00069F0C8010E94C504882311F00E944905FC
:100BD0008D8D81508D8F8D8D181684F38FEF8D8FB5
:100BE0000F900FBEDF91CF911F910F910895EF925B
:100BF000FF92CF93DF93E82EE7017E01F92EE70104
:100C00000FB6F8940F9228813981EB8DF0E04C8D6E
:100C100050E04E9FC0014F9F900D5E9F900D11249C
:100C2000820F931F9B838A831A8E3D832C83319777
:100C3000E49FC001E59F900DF49F900D1124820F59
:100C4000931F9F838E838FEF8D8F8E8F662361F42A
:100C50008885882389F0C70108960E94C5048130E1
:100C600059F40E94CE0C08C0C70108960E9493094F
:100C7000C70141960E9493090F900FBE81E0DF915A
:100C8000CF91FF90EF900895EF92FF920F931F93F3
:100C9000CF93DF93182F062F882301F18FE190E087
:100CA0000E94FD0BE82EE7017E01F92EE701209757
:100CB000A9F0019F90011124C90101960E94FD0B2A
:100CC00099838883009739F01B8F0C8FC70161E0EF
:100CD0000E94F70505C0C7010E94330CC0E0D0E0B8
:100CE000CE01DF91CF911F910F91FF90EF9008956A
:100CF0006F927F929F92AF92BF92CF92DF92EF92CC
:100D0000FF920F931F93DF93CF9300D000D00F92E9
:100D1000CDB7DEB73B015D834C83922E8C0120E082
:100D20007E010894E11CF11C94E0C92ED12CCC0E5C
:100D3000DD1E88E0A82EB12CA00EB11E01C021E05E
:100D40000FB6F8940F92F801928D838D981718F0D2
:100D5000F92DF230A9F4C801B301492D0E944D05C7
:100D6000F8018189882341F0C80141960E94C50499
:100D7000813011F40E94CE0C0F900FBE81E04CC068
:100D80008C819D81009719F40F900FBE44C02223DF
:100D900019F4C7010E940A050F900FBE0E944A0273
:100DA0000FB6F8940F92F801858D8F3F09F4158ED8
:100DB000F801868D8F3F09F4168E0F900FBEC70184
:100DC000B6010E941505882309F50FB6F8940F9215
:100DD000F801928D0F900FBEF801838D981781F462
:100DE0006C817D81C5010E94A804C8010E94B705DD
:100DF0000E944603882309F0A2CF0E94CE0C9FCF09
:100E0000C8010E94B7050E94460399CFC8010E94FD
:100E1000B7050E94460380E00F900F900F900F904F
:100E20000F90CF91DF911F910F91FF90EF90DF9086
:100E3000CF90BF90AF909F907F906F900895EF926A
:100E4000FF920F931F93CF93DF938A01E82EE70160
:100E50007E01F92EE7019A8D8B8D981710F02230C4
:100E6000D9F4CE01422F0E944D058E8D8F3F81F423
:100E70008989882399F0CE0141960E94C504882370
:100E800069F00115110551F081E0F801808307C078
:100E90008E8D8F5F8E8F02C080E001C081E0DF9178
:100EA000CF911F910F91FF90EF9008956F927F92D5
:100EB0009F92AF92BF92CF92DF92EF92FF920F93E9
:100EC0001F93DF93CF9300D000D00F92CDB7DEB742
:100ED0003B015D834C83922E8C0120E07E010894BF
:100EE000E11CF11C44E0C42ED12CCC0EDD1E31E1FE
:100EF000A32EB12CA80EB91E01C021E00FB6F894A4
:100F00000F92F801828D882341F1E680F780C801B5
:100F1000B3010E949705992071F4F801828D8150E8
:100F2000828F80858823A9F0C80108960E94C50495
:100F3000813079F40CC0F801F782E6828189882338
:100F400041F0C80141960E94C504882311F00E9417
:100F5000CE0C0F900FBE81E04AC08C819D8100971E
:100F600019F40F900FBE42C0222319F4C7010E944A
:100F70000A050F900FBE0E944A020FB6F8940F9216
:100F8000F801858D8F3F09F4158EF801868D8F3F0E
:100F900009F4168E0F900FBEC701B6010E94150509
:100FA0008823F9F40FB6F8940F92F801828D0F9010
:100FB0000FBE882381F46C817D81C5010E94A80445
:100FC000C8010E94B7050E944603882309F095CF07
:100FD0000E94CE0C92CFC8010E94B7050E94460322
:100FE0008CCFC8010E94B7050E94460380E00F9095
:100FF0000F900F900F900F90CF91DF911F910F9155
:10100000FF90EF90DF90CF90BF90AF909F907F9038
:101010006F900895EF92FF920F931F93CF93DF93FA
:101020008A01E82EE7017E01F92EE7018A8D8823E7
:10103000E9F0C7010E9497058A8D81508A8F8D8DB6
:101040008F3F81F48885882399F0C70108960E9414
:10105000C504882369F00115110551F081E0F801FC
:10106000808307C08D8D8F5F8D8F02C080E001C0AF
:1010700081E0DF91CF911F910F91FF90EF90089544
:10108000EF92FF920F931F93CF93DF93E82EE70128
:101090007E01F92EE7018A8D882349F00E811F8198
:1010A000C7010E9497051F830E8381E001C080E085
:1010B000DF91CF911F910F91FF90EF9008950FB6A0
:1010C000F8940F92FC01828D0F900FBE0895FC01E1
:1010D0000FB6F8940F92928D0F900FBE838D891BDF
:1010E0000895FC01828D0895EF92FF92CF93DF93D4
:1010F000E82EE7017E01F92EE701888199810E949F
:10110000330CC7010E94330CDF91CF91FF90EF9019
:101110000895FC01928D81E0911180E00895FC0119
:10112000228D81E0938D291380E00895EF92FF9244
:10113000CF93DF93E82EE7017E01F92EE701F894C3
:101140000FB6F8940F929A8D8B8D0F900FBE981753
:1011500079F44115510549F0B701685F7F4FCA0125
:101160000E94A80A78948CEF1CC0789480E019C083
:101170007894F8949A8D981770F4C70140E00E9413
:101180004D058989882349F0C70141960E94D80BF3
:10119000882329F402C080E003C081E001C08BEF06
:1011A0007894DF91CF91FF90EF900895EF92FF92A6
:1011B000CF93DF93E82EE7017E01F92EE701F89443
:1011C0008A8D882379F44115510549F0B7016F5E86
:1011D0007F4FCA010E94A80A78948CEF33C078949C
:1011E00080E030C07894F8948A8D882329F14C8D62
:1011F0002E813F81240F311D3F832E83EA81FB81A5
:101200002E173F0720F0288139813F832E838A8D56
:1012100081508A8F3E812F81CB01632F722F50E046
:101220000E94870D8885882349F0CE0108960E9488
:10123000D80B882329F402C080E003C081E001C0FC
:101240008BEF7894DF91CF91FF90EF900895EF921C
:10125000FF921F93CF93DF93142FE82EE7017E01B7
:10126000F92EE7019A8D8B8D981788F4C70140E01D
:101270000E944D05112359F48989882341F0C70143
:1012800041960E94D80B11E0882309F410E0812FC9
:10129000DF91CF911F91FF90EF900895EF92FF9211
:1012A0000F931F93CF93DF938A01E82EE7017E010E
:1012B000F92EE7018A8D882361F14C8D2E813F81C3
:1012C000240F311D3F832E83EA81FB812E173F07B8
:1012D00020F0288139813F832E838A8D81508A8F27
:1012E0003E812F81CB01632F722F50E00E94870D2A
:1012F000F8018081882379F48885882361F0CE0104
:1013000008960E94D80B882331F081E0F801808391
:1013100003C080E001C081E0DF91CF911F910F9168
:10132000FF90EF900895FC010396928381832FEF45
:101330003FEF34832383968385839087878310824E
:101340000895FC01118610860895CF93DF939C01C8
:10135000DB01FC01C181D2811396DC93CE931297FD
:101360008C819D8115969C938E9314978C819D8181
:10137000FC01738362837D836C8319963C932E9367
:101380001897F90180818F5F8083DF91CF91089555
:101390000F931F93CF93DF938C01DB018D919C9171
:1013A00011972FEF8F3F920721F4F801C781D08565
:1013B0000CC0E801239601C0E9012A813B81F901B3
:1013C0004081518184179507B8F78A819B811396D4
:1013D0009C938E931297FC01B583A4831596DC939E
:1013E000CE931497BB83AA8319961C930E931897D8
:1013F000F80180818F5F8083DF91CF911F910F91E2
:101400000895CF93DF93FC01A281B38184819581FC
:1014100015969C938E931497C481D581BB83AA8320
:10142000A085B18511968D919C9112978E179F077B
:1014300021F41296DC93CE931197118610868C912D
:1014400081508C93DF91CF910895AF92BF92CF924C
:10145000DF92EF92FF920F931F93CF93DF936C0174
:10146000B62EA42E8AE190E00E94FD0BE82EE70143
:101470007E01F92EE701209709F45EC08091670193
:1014800090916801009721F5F0926801E092670160
:1014900083E791E00E9493098CE791E00E94930911
:1014A0005FE8E52E51E0F52EC7010E94930908E997
:1014B00011E0C8010E94930989E691E00E94930916
:1014C000F0928C01E0928B0110938E0100938D01BC
:1014D000BB2011F0BB24B394198E188EBE8AAF8A3C
:1014E000FE01C192D1928F01CF010E94A109CE01CC
:1014F0000C960E94A109D987C887DB8BCA8B84E030
:1015000090E08B1991099D878C872E8980917201BB
:10151000821710F42093720130E0C90143E0880F74
:10152000991F4A95E1F7820F931F8D589E4FB8017E
:101530000E94A50981E001C08FEFDF91CF911F913B
:101540000F91FF90EF90DF90CF90BF90AF900895F4
:101550000F931F93CF93DF93EB01009189011091BB
:101560008A01080F191F8091670190916801029606
:101570000E94010A6091670170916801FB01138369
:1015800002838091890190918A016E5F7F4F0817D5
:10159000190728F480918D0190918E0104C08091EB
:1015A0008B0190918C010E94C809209749F06091AD
:1015B000670170916801645F7F4FCE010E94C80986
:1015C000DF91CF911F910F9108950F931F93CF93A8
:1015D000DF9327C0F894E0916E01F0916F01C6810E
:1015E000D781CE010C960E94010A78948E010E5F7D
:1015F0001F4FC8010E94010A2E8980917201821733
:1016000010F42093720130E0C901F3E0880F991FB4
:10161000FA95E1F7820F931F8D589E4FB8010E94F3
:10162000A509809169018823A9F60E9450022091A2
:10163000850130918601821B930B909388018093E2
:10164000870159C0019690938A01809389012150A6
:1016500030403093880120938701009709F044C0FF
:1016600080918B0190918C0120918D0130918E01A0
:1016700030938C0120938B0190938E0180938D0188
:1016800033C00580F681E02DC681D7812091890184
:1016900030918A018A819B812817390760F1F8947B
:1016A0008E010E5F1F4FC8010E94010A8C899D891F
:1016B000009721F0CE010C960E94010A78942E89A1
:1016C00080917201821710F42093720130E0C901F9
:1016D000E3E0880F991FEA95E1F7820F931F8D5879
:1016E0009E4FB8010E94A509E0918B01F0918C01F9
:1016F0008081882331F62091870130918801809183
:10170000890190918A012115310509F09BCF9093B1
:101710008601809385014091720106C0442319F42B
:101720001092720140C04150842F90E09C0173E000
:10173000220F331F7A95E1F7280F391FF901ED5871
:10174000FE4F5081552351F340937201A181B28124
:1017500012960D90BC91A02DB283A1832A583E4FC2
:10176000A217B30731F412962D913C91139732834F
:101770002183FC0163E0EE0FFF1F6A95E1F7E80F9C
:10178000F91FED58FE4F0180F281E02DA681B7814F
:10179000B0936801A0936701ED91FC911197CD0181
:1017A00057966C910995DF91CF911F910F910895F4
:1017B0000F931F93CF93DF93DC011596ED91FC916E
:1017C0001697C681D7818E01045F1F4FC8010E9402
:1017D000010A89E691E0B8010E94A509E09167013C
:1017E000F091680181E02E899689291708F480E03C
:1017F000DF91CF911F910F910895EF92FF92CF93B8
:10180000DF93EC010E944A0280917F07909180074C
:10181000009731F484EA91E09093800780937F07EA
:101820002091A1013091A201CE01820F931F45E0CA
:101830008B3D940770F42817390758F4C0917F073F
:10184000D0918007C20FD31F9093A2018093A10172
:1018500002C0C0E0D0E00E944603CE01DF91CF91EC
:10186000FF90EF90089508951092A2011092A101A7
:1018700008952BED35E08091A1019091A201281BE4
:10188000390BC901089521E1FC01208392E2929372
:1018900083E3829362937293129280E8829312920E
:1018A00082E0829383E0829384E0829385E0829356
:1018B00086E0829387E0829388E0829389E0829336
:1018C00080E18293229382E1829383E1829384E197
:1018D000829385E1829386E1829387E1829388E116
:1018E000829389E1829380E2829381E28293929350
:1018F00083E282934293529386E2829387E28293B9
:1019000088E2829389E2829380E3829381E38293E7
:101910009F0121503040C901089589EF90E09093D4
:10192000890080938800E0E8F0E080818C7F8083EC
:101930008BE080938100EFE6F0E08081826080831D
:10194000A0910E01B0910F01CD91CDBFDD91DEBF11
:10195000FF91EF91DF91CF91BF91AF919F918F91C7
:101960007F916F915F914F913F912F911F910F91B7
:10197000FF90EF90DF90CF90BF90AF909F908F90AF
:101980007F906F905F904F903F902F901F900F909F
:101990000FBE0F90089581E0089508950F920FB63D
:1019A000F8940F921F9211242F923F924F925F92C0
:1019B0006F927F928F929F92AF92BF92CF92DF925F
:1019C000EF92FF920F931F932F933F934F935F9349
:1019D0006F937F938F939F93AF93BF93CF93DF9337
:1019E000EF93FF93A0910E01B0910F010DB60D92F0
:1019F0000EB60D920E945304A0910E01B0910F01FA
:101A0000CD91CDBFDD91DEBFFF91EF91DF91CF9101
:101A1000BF91AF919F918F917F916F915F914F9106
:101A20003F912F911F910F91FF90EF90DF90CF90FA
:101A3000BF90AF909F908F907F906F905F904F90EE
:101A40003F902F901F900F900FBE0F9008950F9210
:101A50000FB6F8940F921F9211242F923F924F923B
:101A60005F926F927F928F929F92AF92BF92CF922E
:101A7000DF92EF92FF920F931F932F933F934F9319
:101A80005F936F937F938F939F93AF93BF93CF9306
:101A9000DF93EF93FF93A0910E01B0910F010DB66C
:101AA0000D920EB60D920E946402882311F00E94DE
:101AB0005304A0910E01B0910F01CD91CDBFDD91E6
:101AC000DEBFFF91EF91DF91CF91BF91AF919F91D9
:101AD0008F917F916F915F914F913F912F911F91C6
:101AE0000F91FF90EF90DF90CF90BF90AF909F90BD
:101AF0008F907F906F905F904F903F902F901F90AE
:101B00000F900FBE0F9008950E94270D1895FB01AE
:101B1000DC0102C001900D9241505040D8F7089569
:101B2000DC0101C06D9341505040E0F70895F894F6
:021B3000FFCFE5
:0E1B3200626C696E6B0049444C4500FFFF0079
:00000001FF
